:020000040800F2
:10000000802E0020B50100081327000839210008C0
:1000100011270008091200085530000800000000F0
:10002000000000000000000000000000212E000879
:100030001D1200080000000015270008252E0008EA
:10004000CF010008CF010008CF010008CF01000850
:10005000CF010008CF010008CF010008CF01000840
:10006000CF010008CF010008CF010008CF01000830
:10007000CF010008CF010008CF010008CF01000820
:10008000CF010008CF010008CF010008CF01000810
:10009000CF010008CF010008CF010008CF01000800
:1000A000CF010008CF010008CF010008CF010008F0
:1000B000CF010008CF010008CF010008CF010008E0
:1000C000CF010008CF010008CF010008CF010008D0
:1000D000CF010008CF010008CF010008CF010008C0
:1000E000CF010008CF010008CF01000800F002F89E
:1000F00000F051F80AA090E8000C82448344AAF171
:100100000107DA4501D100F046F8AFF2090EBAE86E
:100110000F0013F0010F18BFFB1A43F0010318473B
:10012000FC6300001C640000103A24BF78C878C14A
:10013000FAD8520724BF30C830C144BF04680C60ED
:10014000704700000023002400250026103A28BF35
:1001500078C1FBD8520728BF30C148BF0B60704739
:10016000642900F0C580752900F0C280782900F06C
:10017000FB80732900F04F85002070471FB500F009
:1001800009FE04000020002105F03CFD401C6060D9
:100190001FBD10B510BD00F0E3FF1146FFF7EEFFE5
:1001A00004F0BAFC01F001F803B4FFF7F2FF03BC5E
:1001B00001F004F80948804709480047FEE7FEE7D8
:1001C000FEE7FEE7FEE7FEE7FEE7FEE7FEE7FEE707
:1001D00004480549054A064B70470000A72E000851
:1001E000ED00000880280020802E0020802A0020BA
:1001F000802A00200FB41CB5074B06AA7B44694631
:100200000090059800F0D5FC0020694600F0E4FC61
:100210001CBC5DF814FB0000D90900000FB41CB52C
:100220000C0007AA009001D02044401E074B7B44DD
:1002300069460190069800F0BCFC002C03D069468A
:10024000002000F0C9FC1CBC5DF814FBB1090000E3
:1002500070B5044685690068C10601D5302600E006
:100260002026C00707D070BDD4E901213046904751
:10027000206A401C20626D1EF6D570BD70B5044624
:1002800085690078C00707D170BDD4E9012120201D
:100290009047206A401C20626D1EF6D570BD70B577
:1002A0000C460546012A05D02878800600D5EA6963
:1002B000002302E0012305E05B1C934202D2E05CD4
:1002C0000028F9D1A869E618C01AA861286A18445C
:1002D00028622846FFF7BCFF04E0D5E9012114F8A5
:1002E000010B9047B442F8D32846FFF7C7FF70BD13
:1002F0002DE9F0410646002410687529314616A5FF
:1003000010D0AFF30080002802DA404213A507E0C6
:1003100031688A0701D512A502E0490704D511A565
:10032000012401E0AFF3008000210A2206F1240736
:1003300009E0B0FBF2FCB0FBF2F302FB1C00303032
:1003400078541846491C0028F3D123462A463046E3
:10035000BDE8F04100F0CEBB000000002D00000021
:100360002B0000002000000070B504460D46214619
:100370001068AFF300802188090502D50F4A7A443E
:1003800002E00E4A7A440E32002104F1240305E013
:1003900000F00F060009965D5E54491C0028F7D155
:1003A00020780023000704D5702D02D009B1022364
:1003B00011322046BDE8704000F09CBB5E61000039
:1003C0002DE9F05F894604464FF0000ADFF874B16A
:1003D000FB44C0F820A02046E1688847002874D07C
:1003E000252806D0D4E901219047206A401C2062CC
:1003F000F1E700265F462046E16888472028054649
:1004000007DB312D05D2781910F8200C08B106430E
:10041000F1E7B00701D526F00406C4F81CA00027B8
:10042000C4F818A02A2D09D0284602F024FE38B3BB
:1004300004EB8708303DC8F8185019E059F8041B40
:10044000204604EB87029161E1688847012F054649
:1004500018D1E069002820DA26F020061DE0D8F83F
:10046000180000EB800005EB40003038C8F8180099
:100470002046E1688847054602F0FDFD0028EED1E0
:10048000012F0AD02E2D08D12046E16888477F1C15
:100490000546022F46F02006C4DBA069002803DAD7
:1004A000404246F00106A061F00701D026F0100698
:1004B0006C2D0BD0682D09D04C2D39D06A2D35D03C
:1004C000742D35D07A2D33D016E038E0E1682F4610
:1004D00020468847B842054609D16C2F26D04FF4F4
:1004E0008060E168064320468847054604E06C2F9B
:1004F0001AD04FF4807006430DB3A5F141001928BE
:1005000002D8203546F400664A4629462046266031
:100510004E46FFF725FE80B101280BD0F61D26F0D0
:10052000070000F1080956E74020E4E78020D8E7FB
:100530000020D6E706F104094DE7284652E7206A75
:10054000BDE8F09F346100000FB400B58DB010A974
:10055000099000910B904FF0FF300A9000200C9012
:10056000064878440690064878446A4607900F99F2
:1005700009A800F069FB0DB05DF814FB030700004B
:100580001B0700002DE9FF5F1D464FF0FF3B914622
:100590004FF000085F46D5E90146A96901987F1C24
:1005A0008847296A824688470028F6D1BAF1FF3F7A
:1005B0000CD0002E24F4C06419DD600614D5BAF105
:1005C0002B0F09D0BAF12D0F0ED103E0584604B01D
:1005D000BDE8F09F44F48064A96901987F1C8847B6
:1005E000761E8246002E02DDBAF1300F03D0B9F13B
:1005F000000F26D032E0A969761E01987F1C44F4D2
:1006000000748847002E824605DDBAF1780F06D0C7
:10061000BAF1580F03D0B9F1000F10D01EE0B9F1B4
:10062000000F02D0B9F1100F18D1A969761E0198F8
:100630007F1C24F4007488478246102002E00820C2
:1006400000E00A20814609E0A96908FB0908761E36
:1006500001987F1C44F4007488478246002E05DD13
:100660004946504600F0DBFA0028EDDAE9690198C6
:100670008847A00502D46FF00100A8E7E00725D164
:10068000600613D5600502D5C8F1000000E04046C1
:1006900029680A1D2A600968220501D5087015E03D
:1006A000220701D5088011E008600FE02868011DCD
:1006B00029600068210502D580F8008006E0210746
:1006C00002D5A0F8008001E0C0F8008038467EE73F
:1006D0002DE9F05F93460F4680460446002600F061
:1006E00005FAD0F80090824614F8015B2DB100F0B5
:1006F000F5F90068405DC007F6D12B2D02D02D2DF5
:100700001AD0641E0021CAF800105A463946204605
:1007100000F0CAFA014627B13868A04201D1C7F8F3
:100720000080DAF80000022809D0CAF800907005AD
:1007300005D54842BDE8F09F46F48066E2E70846EA
:10074000F8E70000014A00F0FFBA00005400002062
:1007500040EA010310B59B070FD1042A0DD310C83E
:1007600008C9121F9C42F8D020BA19BA884201D990
:10077000012010BD4FF0FF3010BD1AB1D30703D0D8
:10078000521C07E0002010BD10F8013B11F8014B8E
:100790001B1B07D110F8013B11F8014B1B1B01D1AA
:1007A000921EF1D1184610BD10B5431C02E010F89E
:1007B000011B71B18107FAD14FF0013202C88C1AC6
:1007C0008C4314EAC211F9D0C01A0A0603D0C01E25
:1007D00010BDC01A10BD0A0401D0801E10BD090250
:1007E000FCD0401E10BD40EA010370B59B072ED11E
:1007F0004FF00136042A2AD308C810C99D1B9D4317
:10080000121F15EAC61517D0D8B2E1B2401A50EA45
:10081000056110D198B2A1B2401A50EA05410AD13F
:1008200023F07F4024F07F41401A50EA052102D195
:10083000180EA0EB146070BDA342DBD018BA21BA29
:10084000884201D9012070BD4FF0FF3070BD0AB958
:10085000002070BD10F8013B11F8014B63B1A342B9
:100860000AD1521E08D010F8013B11F8014B1BB100
:10087000A34201D1521EEDD1181B70BD032A40F2D4
:10088000308010F0030C00F0158011F8013BBCF132
:10089000020F624498BF11F801CB00F8013B38BF4A
:1008A00011F8013BA2F1040298BF00F801CB38BF58
:1008B00000F8013B11F0030300F02580083AC0F076
:1008C000088051F8043B083A51F804CBA0E808101E
:1008D000F5E7121D5CBF51F8043B40F8043BAFF351
:1008E0000080D20724BF11F8013B11F801CB48BFAB
:1008F00011F8012B24BF00F8013B00F801CB48BFE1
:1009000000F8012B704710B5203AC0F00B80B1E819
:100910001850203AA0E81850B1E81850A0E8185034
:10092000BFF4F5AF5FEA027C24BFB1E81850A0E83D
:10093000185044BF18C918C0BDE810405FEA827C57
:1009400024BF51F8043B40F8043B08BF7047D2076E
:1009500028BF31F8023B48BF11F8012B28BF20F80F
:10096000023B48BF00F8012B70474FF000020429FA
:10097000C0F0128010F0030C00F01B80CCF1040CCE
:10098000BCF1020F18BF00F8012BA8BF20F8022B02
:10099000A1EB0C0100F00DB85FEAC17C24BF00F8A8
:1009A000012B00F8012B48BF00F8012B70474FF0D6
:1009B000000200B5134694469646203922BFA0E8AF
:1009C0000C50A0E80C50B1F12001BFF4F7AF0907BB
:1009D00028BFA0E80C5048BF0CC05DF804EB8900AC
:1009E00028BF40F8042B08BF704748BF20F8022BEF
:1009F00011F0804F18BF00F8012B704710B5044666
:100A000010F0030F08BF11F0030F40F015804FF0F6
:100A1000013E121FC0F20E8051F8043BA3EB0E0CF6
:100A20002CEA030C1CEACE1C08BF40F8043BF0D0B3
:100A3000A1F1040102F10402521E08DB11F8013B8E
:100A4000002B00F8013BF7D11146FFF78EFF20463F
:100A500010BD00004FF0013C50F8042B51F8043B4E
:100A60009A4221D1A2EB0C03934313EACC1317D182
:100A700050F8042B51F8043B9A4215D1A2EB0C0319
:100A8000934313EACC130BD150F8042B51F8043BD9
:100A90009A4209D1A2EB0C03934313EACC13DBD0A7
:100AA0004FF00000704700BFD01A01BAB1FA81F1CF
:100AB00001F0180122FA01F0CB40C1F12001DBB2B4
:100AC000C0B2C01A2CFA01F3D11A914311EAC31132
:100AD000E6D17047704770477047000010B500F0CE
:100AE00059F9001D10BD00BF1D510000004870479E
:100AF0001C2800202DE9F0470D46994692460446F1
:100B000000F124080168880604D5E06921F010018D
:100B1000216000E00120A84201DD471B00E0002722
:100B2000A1697A1902EB0900081AA0612078C006B1
:100B300002D42046FFF78CFB002608E0D4E901210F
:100B40001AF806009047206A401C761C20624E4529
:100B5000F4DB2078C0060AD52046FFF779FB06E0D3
:100B6000D4E9012130209047206A401C2062381EC1
:100B7000A7F10107F4DC07E0D4E9012118F805002A
:100B80009047206A401C2062281EA5F10105F3DC75
:100B90002046FFF773FB2078000602D50220BDE84F
:100BA000F0870120FBE7000001694A1C0261087818
:100BB000704700B58FB0CDE901310021059105499D
:100BC0007944CDE9031011466846FFF7F9FB0FB0F1
:100BD00000BD0000E5FFFFFF0A6802F8010B0A6094
:100BE0007047D1E900239A4202D2531C0B60107067
:100BF000704710B5436913B1AFF3008001E0FFF710
:100C00004EFB012010BD127800F124010A70002271
:100C10004A700122EDE711684FF0FF32E9E73A2808
:100C200000D2303820F02002412A01D3A2F137004F
:100C3000884201D34FF0FF30704700000268114432
:100C40001378016018467047D160054979445161B5
:100C500004497944116200211161114600F0A8B8DD
:100C6000EDFFFFFF47010000426842B1016811F843
:100C7000013B23B1521EC0E9001218467047012102
:100C8000C160881E704742685AB1C368016843B9A1
:100C900083688B4205D0491E521CC0E90012002017
:100CA00070474FF0FF3070472DE9F05F82461546E0
:100CB0008B4600270AF10104B9460078302801D09C
:100CC0009DB113E014F8010B0127782803D05828B0
:100CD00001D045B10AE00DB1102D07D1002714F85D
:100CE000010B102502E0082500E00A250026B04689
:100CF0000EE005FB080005FB06F101271FFA80F84E
:100D000001EB1046B6F5803F00D3B94614F8010B4D
:100D10002946FFF784FF0028EBDABBF1000F05D06E
:100D20000FB1641E00E05446CBF80040B9F1000F4B
:100D300006D0FFF7DBFE02210160C81EBDE8F09F70
:100D400048EA0640FAE700002DE9F04115460E4654
:100D5000040002D12C6804B90BA4204600F0F2F97B
:100D60000444207870B127463146384600F0DAF95D
:100D70000444207810B1002004F8010B38462C60A0
:100D8000BDE8F0810027F9E7000000000048704747
:100D90001C280020004870473C28002010B504465D
:100DA000FFF79CFE0068005D00F0010010BD000030
:100DB0002DE9F34F4FF0000A0C4656468DB0012046
:100DC0000C9001F10C000B9062690B980121904787
:100DD000051E2DD0252D2CD0216A8847C0B162690F
:100DE0000B9801219047216A88470028F7D1626952
:100DF000411E0B98904700E0761CA1690D9888472A
:100E0000216A88470028F7D1E1690D988847DBE718
:100E1000A1690D988847A842074601D1761CD3E7FF
:100E2000E1690D9888477F1C02D1BAF1000F6FD09D
:100E30006BE162690B9800273D46394690472A28A6
:100E400004D162690B98012190470125DFF8D08217
:100E500062690B9801219047A0F130010A290AD25A
:100E60004745E5DC07EB870100EB4107303FDFD466
:100E700045F01005ECE7E90601D46FF000476C2857
:100E80000AD04C2814D0682815D06A280DD07428B0
:100E90001CD07A281AD01DE062690B980121904776
:100EA0006C2802D045F0040514E045F002050DE081
:100EB00045F020050AE062690B98012190476828F7
:100EC00002D045F0080505E045F4006562690B981D
:100ED00001219047C4E9015765283DD019DC582805
:100EE0007AD00CDC452837D004DC252826D04128D0
:100EF0009ED131E046282FD0472899D12CE05B289D
:100F000077D0612828D063287CD0642823D15AE088
:100F1000F6E06F2848D008DC66281DD067281BD073
:100F2000692821D06E2816D127E0702845D0732873
:100F300068D0752847D078280DD14DE0A1690D986B
:100F40008847252805463FF469AFE1690D98884731
:100F50006D1C3FF46AAFD8E00D9923466A466FF0E6
:100F60000100AFF30080C5E045F0400023464FF09C
:100F700000026060A80736D43EE0E8077FF447AF80
:100F80002068011D21600068290501D506701BE756
:100F9000290701D5068017E7A90703D5F117C0E98E
:100FA000006111E706600FE745F0400023464FF06F
:100FB00008026060A80716D41EE040F60E0125EA7C
:100FC0000100606016E045F0400023464FF00A0241
:100FD0006060A80707D40FE045F040006060A807F4
:100FE00008D5234610220D996FF00100AFF3008061
:100FF00080E007E0102223460D996FF00100FFF713
:10100000C1FA77E04FF0000963284F46C8464B46C7
:10101000CB4602D05B2806D038E0E80601D4012098
:10102000A060012732E06269D4F80CB00B9801216E
:1010300090475E2807D14FF0010949466269D4F80C
:101040000CB00B989047216939B900210A4603ABCF
:1010500043F82120491C0829FADBD8B3216949B398
:1010600008F1010862690B98012190475D28F4D1CD
:10107000B9F1000F09D0002003A951F82020D24374
:1010800041F82020401C0828F7DB03AB206900282A
:1010900020794FEA40701ED05B462246CDF8008092
:1010A000CDE901970D9900286FF0010020DAAFF328
:1010B00000801FE0C11703AA00EBD1614B1121F0A2
:1010C0001F0102EB8302411A136801208840034389
:1010D0001360C7E719E00D99224600286FF0010060
:1010E000009702DAAFF3008004E0AFF3008001E084
:1010F000AFF3008000280ADA401C06D10C9820B11A
:101100004FF0FF300FB0BDE8F08F5046FAE7E90727
:1011100001D10AF1010A064400200C9054E60000B7
:10112000CCCCCC0C30B503461D781DB10A4603E08B
:10113000AC4201D1181A30BD12F8014B002CF7D186
:101140005B1CF1E730B503461D783DB10A4612F845
:10115000014B1CB1AC42FAD15B1CF5E7181A30BD4B
:101160007546FFF713FEAE4605006946534620F06C
:101170000700854618B020B5FFF72AF8BDE82040E3
:101180004FF000064FF000074FF000084FF0000B43
:1011900021F00701AC46ACE8C009ACE8C009ACE8F6
:1011A000C009ACE8C0098D46704710B50446AFF3DE
:1011B00000802046BDE81040FEF7F6BF0149182028
:1011C000ABBEFEE72600020070470A460146104605
:1011D00000F0B4BF01F0C8B9F0B50024002304EB5F
:1011E000800601EB840503EB860CEF5C12F80CC063
:1011F00087EA0C07EF545B1CDBB2042BF3D3641CAF
:10120000E4B2042CEAD3F0BDFEE700000122102175
:10121000014800F029B90000000801407047002291
:10122000AFF3008030B50E4B054601205C7A012CEF
:1012300015D8587A00241C54587A03EB8000456076
:101240005D7A03F108002A54587A421C5A723030F1
:1012500008703A2048702F208870CC70002030BD74
:101260001028002070B5044600F004F90546601C03
:1012700002D004480078044400F0FCF8401BA0426F
:10128000FAD370BD3C0000202DE9F84FDFF8B8918B
:101290000024A9F1040B23460F2709F1040AABF13E
:1012A000040EC9E00125A5402A40AA427DD1674E1F
:1012B000D1F804C0ACEB0608B44532D014DCBCF164
:1012C000030F3AD009DCBCF1000F2AD0BCF1010FAA
:1012D0001CD0BCF1020F31D11DE0BCF1110F17D0B1
:1012E000BCF1120F2AD119E0B8F5881F19D006DC1D
:1012F000B8F5803F15D0B8F5801F1FD111E0B8F5C3
:10130000001F0ED0B8F5041F18D10AE0CB6815E015
:10131000CB681B1D12E0CB6808330FE0CB680C33A1
:101320000CE08B682BB1012B4FF0080303D0456113
:1013300004E0042302E0056100E00023FF2A01D855
:10134000064601E000F104064FEA840501D9A5F143
:101350002005D6F8008007FA05FC28EA0C0803FAF5
:1013600005F548EA0508C6F800804D68ED0062D52D
:10137000374DAE6946F00106AE61AD6924F0030653
:1013800005F001050095334D06EB050CDCF808501F
:10139000A607360F07FA06F825EA0805DFF8B88031
:1013A000404503D14FF0000817E044E0DFF8AC807F
:1013B000404502D14FF001080FE0DFF8A48040451E
:1013C00002D14FF0020808E0DFF89880404502D1D2
:1013D0004FF0030801E04FF0040808FA06F848EA65
:1013E0000508CCF808804D68D9F80060ED024D463C
:1013F00001D5164300E096432E604D68DAF8006090
:10140000AD02554601D5164300E096432E604D6867
:10141000DBF80060AD035D4601D5164300E096435E
:101420002E604D68DEF80060ED03754601D5164369
:1014300000E096432E60641C0D682A46E5407FF468
:1014400031AFBDE8F88F0000080401400000111022
:10145000001002400000014000080140000C014063
:1014600000100140001401400AB1016170470904F5
:10147000FBE7000001488068704700003C00002046
:101480000248816802781144816070473C00002066
:10149000074810B5016841F010010160032000F019
:1014A00067F80F2000F006F800F024F8002010BDC7
:1014B0000020024070B50D4D04464FF47A71287833
:1014C000B1FBF0F00A490968B1FBF0F000F00DFD46
:1014D00048B9102C07D200222146501E00F028F8EF
:1014E00000206C6070BD012070BD00003C00002039
:1014F000480000200C4808B5816941F00101816174
:10150000816901F001010091C16941F08051C1611F
:10151000C06900F0805000900448416821F0E0610B
:1015200041F00071416008BD001002400000014020
:10153000F0B40E4B1B680C46C3F30223C3F107053E
:10154000042D00D90425191D072901D2002300E02C
:10155000DB1E012606FA05F1491E214099409E40F6
:10156000761E16403143F0BC01F075BD0CED00E075
:10157000064900F0070208684FF6FF03184040EAEA
:101580000220034A10430860704700000CED00E0A1
:101590000000FA052DE9F0470F46050061D0434EE3
:1015A000306800F00700B84209D2306820F0070028
:1015B00038433060306800F00700B84251D12868E5
:1015C0003B4C810712D5400703D5606840F4E060CA
:1015D00060602878000703D5606840F46050606060
:1015E0006068A96820F0F000084360602878C007B0
:1015F00028D06868012810D02168022810D08907F7
:1016000000292EDA616821F0030101436160FFF7D0
:1016100031FF804641F288390DE021688903EFE708
:101620008901EDE7FFF726FFA0EB0801494502D944
:101630000320BDE8F0876068696800F00C00B0EB3B
:10164000810FEFD1306800F00700B8420BD9306845
:1016500020F0070038433060306800F00700B842DF
:1016600001D00120E5E72878400705D56068E968E2
:1016700020F4E060084360602878000706D56068C1
:10168000296920F4605040EAC100606000F038F839
:101690006168084AC1F30311515CC84006490860FB
:1016A00006480068FFF706FF0020C2E7002002405E
:1016B000001002404E5F000848000020400000205B
:1016C0000448054900684968044AC1F30221515C95
:1016D000C840704748000020001002405E5F0008CC
:1016E0000448054900684968044AC1F3C221515CB5
:1016F000C840704748000020001002405E5F0008AC
:101700000E4A51680E4801F00C03042B11D0082B2F
:101710000FD10C48C1F38343C903C05C0AD551689B
:10172000084AC1F34041921E515C054A5043B0FB48
:10173000F1F0704704494843704700000010024030
:1017400000127A003E5F000800093D002DE9F84FC5
:10175000040070D02078C04DC00749D06868C0F33D
:101760008100012807D06868C0F38100022809D1F0
:101770006868C00306D52868800339D560680028EA
:10178000E7D035E06068B0F5803F0BD010B1B0F520
:10179000A02F11D0286820F480302860286820F419
:1017A000802002E0286840F480302860606890B1B2
:1017B000FFF760FE06460AE0286840F480202860B3
:1017C000F0E700BFFFF756FE801B642873D8286837
:1017D0008003F7D50CE0FFF74DFE064605E000BF9D
:1017E000FFF748FE801B6428F0D828688003F7D4F0
:1017F00020789A4E80074FF001094FF0000839D544
:10180000686810F00C0F07D06868C0F381000228E8
:1018100009D16868C00306D42868800714D52069F8
:10182000012808D110E02069B0B1C6F80090FFF798
:1018300021FE074605E00AE1FFF71CFEC01B022857
:10184000C4D828688007F7D52868616920F0F800B7
:1018500040EAC10028600DE0C6F80080FFF70AFEEC
:10186000074604E0FFF706FEC01B022823D82868BD
:101870008007F7D4207800072CD57948A169D9B121
:10188000C0F80090FFF7F6FD074604E0FFF7F2FD11
:10189000C01B02280FD8686A8007F7D571484FF43B
:1018A000FA510068B0FBF1F0009000BF0098411EB3
:1018B0000091FAD20EE080E0C0F80080FFF7DAFD78
:1018C000074604E0FFF7D6FDC01B022875D8686AFA
:1018D0008007F7D42078400760D5E8690027C0006A
:1018E00008D4E86940F08050E861E869012700F019
:1018F000805000905C480168C90513D40168834694
:1019000041F480710160FFF7B5FD824606E000BF3B
:10191000FFF7B0FDA0EB0A0064284ED8DBF800000A
:10192000C005F5D5E06801280AD008B1052813D014
:10193000286A20F001002862286A20F0040002E0F2
:10194000286A40F001002862E06841F2883B98B1C3
:10195000FFF790FD82460BE0286A40F00400286201
:10196000EEE700BFFFF786FDA0EB0A0159455AD804
:10197000286A8007F6D50CE0FFF77CFD824605E07B
:10198000FFF778FDA0EB0A0159454CD8286A80077B
:10199000F6D41FB1E86920F08050E861E06988B3AF
:1019A0006968C1F38101022944D00228C6F8608029
:1019B00004D0FFF75FFD044638E034E0FFF75AFD3E
:1019C000074604E0FFF756FDC01B02282BD8286805
:1019D0008001F7D4206AB0F5803F05D16868A1681E
:1019E00020F4003008436860D4E9080108436968BE
:1019F00021F4741108436860C6F86090FFF73AFD5F
:101A0000044606E025E000BFFFF734FD001B022876
:101A100009D828688001F7D51BE000BFFFF72AFD31
:101A2000001B022802D90320BDE8F88F2868800136
:101A3000F4D40EE00128F7D06868226A00F48031FF
:101A4000914204D1616A00F47010884201D00120F3
:101A5000EAE70020E8E700000010024000004242F0
:101A600080044242480000200070004090F851007D
:101A7000704770B5040009D0606A002540B1256147
:101A80006561A56294F8510040B10CE0012070BD81
:101A90006068B0F5827FF4D0E561F2E784F85050D9
:101AA000204600F03FF8022084F8510020680168C9
:101AB00021F040010160A088218900F4827001F4C6
:101AC00004410843A18901F400610843217C01F02D
:101AD00002010843217D01F001010843218B01F43B
:101AE00000710843217F01F03801084394F8201069
:101AF00001F080010843218D01F400510843216861
:101B00000860A069042101EA10402168486020684B
:101B1000C16921F40061C1616565012084F851004B
:101B2000002070BD30B585B000240094019402946B
:101B3000039400681449884223D11448816941F410
:101B400080518161816901F480510491816941F082
:101B50000401816180690E4D00F004000490A02012
:101B60000090022001900320039069462846FFF769
:101B70008BFB4020CDE90004694628460294FFF71C
:101B800083FB05B030BD0000003001400010024072
:101B9000000801402DE9F84F984616468A4604464B
:101BA000FFF768FC814694F8510001281ED1BAF174
:101BB000000F73D0002E71D094F85000012815D07A
:101BC000012784F85070032084F8510000256565D2
:101BD000C4F830A0A686E686A563A587E587656478
:101BE0002564A068B0F5004F03D00CE00220BDE8EA
:101BF000F88F2068016821F04001016020680168C9
:101C000041F48041016020680168490603D40168FD
:101C100041F040010160E068B0F5006F606803D0FA
:101C200048B3012E27D047E008B1012E1FD1206B09
:101C300021680088C86006E020688168890709D5A6
:101C4000216B0988C160206B801C2063E08E401EE0
:101C5000E0860CE0FFF70EFCA0EB0901414503D341
:101C6000B8F1FF3F03D035E0B8F1000F32D0E08E7D
:101C70000028E1D123E0206B21680078087306E09A
:101C80002068816889070AD5216B09780173206B68
:101C9000401C2063E08E401EE0860DE02BE0FFF745
:101CA000E9FBA0EB0901414503D3B8F1FF3F03D0A5
:101CB00010E0B8F1000F0DD0E08E0028E0D14A46C8
:101CC0004146204601F00CF808B120206065A0686C
:101CD00030B109E084F8517084F85050032086E751
:101CE0002068C1688068009084F8517004F8505FE3
:101CF00060680028F3D0012079E72DE9FF4F81B01B
:101D00001D46934604464FF001090E9EFFF7B2FBB5
:101D1000074694F851006168012806D0B1F5827F2A
:101D20003CD1A168C9BB042838D10298002871D0E1
:101D3000BBF1000FFBD0002DF9D094F85000012822
:101D40002CD04FF0010A84F850A094F851000428D8
:101D500002D0052084F851004FF00008C4F85480E8
:101D6000C4F838B0E587A58702992163E586A58682
:101D7000C4F84080C4F8448020680168490603D450
:101D8000016841F040010160E068B0F5006F6068F3
:101D900008D0F0B3012D49D081E0FFE7022005B063
:101DA000BDE8F08F08B1012D39D1206B2168008882
:101DB000C860206B801C2063E08E401EE0862EE011
:101DC0002068816889070FD5E18E69B1B9F1010FEB
:101DD0000AD1216B0988C160206B801C2063E08ED2
:101DE000401EE0864FF0000920688168C9070CD0CA
:101DF000E18F51B1C068A16B0880A06B801CA0630B
:101E0000E08F401EE0874FF00109FFF733FBC01B56
:101E100001E00BE067E0B04201D3701C50D1E08ECE
:101E20000028CDD1E08F0028CAD13EE0206B216888
:101E300000780873206B401C2063E08E401EE08613
:101E40002DE02068816889070FD5E18E69B1B9F16D
:101E5000010F0AD1216B09780173206B401C2063AC
:101E6000E08E401EE0864FF0000920688168C907B7
:101E70000CD0E18F51B1C068A16B0870A06B401C01
:101E8000A063E08F401EE0874FF00109FFF7F2FAF0
:101E9000C01BB04202D3701C01D011E086B1E08EAD
:101EA0000028CED1E08F0028CBD13A4631462046DB
:101EB00000F016FF50B12020606584F8508012E0D9
:101EC00084F851A084F85080032068E7A06818B90E
:101ED0002068C1688068009084F851A084F8508020
:101EE000606D0028F1D0012059E710B5401EB0F117
:101EF000807F01D3012010BD4FF0E02460610F21ED
:101F0000601701F0A8F80020A061072020610020E0
:101F100010BD70B5040004D094F84100002510B144
:101F200006E0012070BD84F84050204600F024F8FF
:101F3000242084F841002068C16821F40051C16068
:101F4000204600F0D9FF2068016921F49041016129
:101F50002068416921F02A0141612068C16841F48B
:101F60000051C1606564202084F8410084F842007B
:101F70006563002070BD000030B585B0002400947A
:101F800001940294039400681449884224D11448AF
:101F9000816941F480418161816901F4804104914A
:101FA000816941F00401816180690E4D00F00400F7
:101FB00004904FF4007000900220019003200390E1
:101FC00069462846FFF760F92815CDE900046946FF
:101FD00028460294FFF758F905B030BD003801409B
:101FE00000100240000801402DE9F84F044690F827
:101FF00042009A4616460D46202802D00220BDE82F
:10200000F88FB5B1AEB100206064222184F842108F
:102010002063FFF72FFAA6858146E685A0684FF476
:1020200080582027404501D1206920B12E46002547
:1020300029E00120E3E7002625E04B46002220218D
:102040002046CDF800A000F0B3FF18B184F842702C
:102050000320D4E726B1A06840451AD038B108E083
:1020600020684068C0F3080025F8020B08E02069EA
:1020700078B12068406800F07F0000BF06F8010BCF
:10208000E08D401EE085E08D0028D6D184F84270B6
:10209000B5E720684068F1E72DE9F843044690F879
:1020A0004100984616460D46202802D00220BDE881
:1020B000F88385B17EB100206064212084F841005E
:1020C000FFF7D8F9A6848146E684A0682027B0F5FA
:1020D000805F02D003E00120E9E7206910B12E46BD
:1020E00000250EE000260CE08021204600F060FF75
:1020F000A8B9C6B116F8010B21684860E08C401EF3
:10210000E084E08C4B464FF00002CDF800800028C0
:10211000EAD14FF04001204600F04AFF40B184F878
:1021200041700320C3E735F8020BC0F30800E3E772
:1021300084F841700020BAE7FEE700002DE9F04185
:102140000F460A46044601460A20FFF745F81C4E92
:102150000925607B617A617361796172617861716F
:102160006070A078A17AA170A072A079A17BA17102
:10217000A073E078E179E170E17AE171E17BE172ED
:10218000E07300205FF0000104EB8102491C135C46
:10219000C9B20429F35C1354F6D3401CC0B204281E
:1021A000F0D33A4621462846FFF716F8002D05D011
:1021B000204600F007F86D1EEDB2CAE7BDE8F081D9
:1021C000305D00082DE9F14F0024009800EB8405F4
:1021D00010F8248095F8019095F802B095F803A0C6
:1021E000404603F005FD03F003FD03F001FD03F09D
:1021F000FFFC504603F0FCFC584603F0F9FC48464F
:1022000003F0F6FC03F0F4FC484603F0F1FC03F0A5
:10221000EFFC03F0EDFC03F0EBFC504603F0E8FCB0
:1022200003F0E6FC03F0E4FC03F0E2FC504603F0AC
:10223000DFFC03F0DDFC584603F0DAFC03F0D8FCC9
:1022400003F0D6FC03F0D4FC404603F0D1FC064674
:10225000404603F0CDFC03F0CBFC4640404603F083
:10226000C7FC03F0C5FC03F0C3FC4640484603F03E
:10227000BFFC80EA0907484603F0BAFC03F0B8FC4B
:1022800003F0B6FC47407E40584603F0B1FC03F033
:10229000AFFC80EA0B07584603F0AAFC03F0A8FC49
:1022A00003F0A6FC47407E40504603F0A1FC03F03B
:1022B0009FFC03F09DFC80EA0A004640009800F86D
:1022C0002460404603F094FC504603F091FC5846CD
:1022D00003F08EFC03F08CFC484603F089FC03F00D
:1022E00087FC03F085FC03F083FC404603F080FC90
:1022F00003F07EFC03F07CFC03F07AFC404603F024
:1023000077FC03F075FC504603F072FC03F070FCA0
:1023100003F06EFC03F06CFC584603F069FC03F01C
:1023200067FC03F065FC03F063FC404603F060FCCF
:1023300003F05EFC03F05CFC80EA0806484603F00C
:1023400057FC0746484603F053FC03F051FC474056
:10235000484603F04DFC03F04BFC03F049FC4740BA
:102360007E40584603F044FC80EA0B07584603F0D1
:102370003FFC03F03DFC03F03BFC47407E405046F1
:1023800003F036FC03F034FC80EA0A07504603F001
:102390002FFC03F02DFC03F02BFC47407E406E70B9
:1023A000404603F025FC504603F022FC03F020FCDD
:1023B000584603F01DFC03F01BFC03F019FC03F06E
:1023C00017FC484603F014FC404603F011FC03F0F0
:1023D0000FFC03F00DFC03F00BFC504603F008FC6F
:1023E00003F006FC03F004FC03F002FC484603F093
:1023F000FFFB03F0FDFB03F0FBFB03F0F9FB48469A
:1024000003F0F6FB03F0F4FB404603F0F1FB03F0AE
:10241000EFFB80EA0806404603F0EAFB03F0E8FB26
:1024200003F0E6FB4640484603F0E2FB03F0E0FB26
:1024300003F0DEFB80EA09004640584603F0D8FB73
:102440000746584603F0D4FB03F0D2FB47405846FA
:1024500003F0CEFB03F0CCFB03F0CAFB47407E4009
:10246000504603F0C5FB80EA0A07504603F0C0FB64
:1024700003F0BEFB03F0BCFB47407E40AE7040461D
:1024800003F0B6FB03F0B4FB504603F0B1FB03F0DE
:10249000AFFB03F0ADFB03F0ABFB584603F0A8FB2A
:1024A000484603F0A5FB404603F0A2FB03F0A0FB67
:1024B00003F09EFB03F09CFB584603F099FB03F0EE
:1024C00097FB03F095FB03F093FB584603F090FB5A
:1024D00003F08EFB484603F08BFB03F089FB03F00F
:1024E00087FB03F085FB404603F082FB80EA080689
:1024F000404603F07DFB03F07BFB03F079FB464095
:10250000484603F075FB03F073FB80EA0907484671
:1025100003F06EFB03F06CFB03F06AFB47407E4068
:10252000584603F065FB03F063FB03F061FB80EAB0
:102530000B004640504603F05BFB0746504603F055
:1025400057FB03F055FB4740504603F051FB03F0A7
:102550004FFB03F04DFB47407E40641CEE70042CA3
:10256000FFF633AEBDE8F88FF0B5002301EB83052D
:1025700011F8234000F8234000EB83046E78667066
:10258000AE78A670ED785B1CE570042BEED30423C7
:1025900099000D1F4619445D757864F30702B778FA
:1025A00065F30F22F67867F3174266F31F625FEA5E
:1025B000837C17D1DFF85CC01CF807701CF806603C
:1025C00067F30F221CF8044066F3174264F31F629E
:1025D0000CF5007404EB93041CF805502478654056
:1025E00065F30702A1F110045B1C055D044455402E
:1025F00045546578014485EA12254D70A5782C2B49
:1026000085EA12458D70E47884EA1264CC70BFD3F9
:10261000F0BD0000305C000810B504490448FEF726
:10262000FEFD0249491E087010BD00003500002063
:10263000200000202DE9F04186B0002420480094BD
:10264000019402940394816941F0200181618169C0
:1026500001F020010491816941F0040181618169E7
:1026600001F004010491816941F0080181618069F0
:10267000144F00F008000490002210213846FEF7A5
:10268000F3FEDFF84480002205214046FEF7ECFE11
:10269000102001250226CDE90005CDE90246694654
:1026A0003846FEF7F1FD0520CDE90005CDE90246EB
:1026B00069464046FEF7E8FD06B0BDE8F08100003F
:1026C0000010024000080140000C01400F4810B506
:1026D0000D4901604FF48271416000218160C16049
:1026E0004FF400720161C0E905123822C0E90721E8
:1026F000416281620A21C162FFF7BBF9002801D063
:1027000072B6FEE710BD0000003001405800002006
:10271000FEE7FEE7704700000648417811B14178B6
:10272000491E41708178002902D08178491E81704C
:10273000704700001C0000207CB541F6FF75FEF7D5
:1027400065FD0024FF2000F0FFFA641C0A2CF9DB71
:1027500000F0BEFA40208DF8000000208DF8010046
:102760008DF802008DF803008DF8040095208DF897
:10277000050000246E46305D00F0E6FA641C062C6D
:10278000F9DB00E06D1E00F0C5FA012801D0002D34
:10279000F8D1FEF73BFDFF2000F0D6FA01490120F9
:1027A00048707CBD0000002010B5064C322020701F
:1027B00000F0B0FA00F0AEFAFF2802D0217800292C
:1027C000F8D110BD1E0000202DE9F041114D044646
:1027D0000A200E4685F8000000F09CFAFF2804D07D
:1027E000FE2806D00020BDE8F08128780028F3D12B
:1027F000F8E72746651C00F08DFA38706C1C00F075
:1028000089FA2870B61EF4D100F084FA00F082FA3A
:102810000120E8E71D00002070B50C460546FFF7D3
:10282000C3FFFF2801D0FF2070BD284600F08CFABE
:10283000200E00F089FAC4F3074000F085FAC4F3D3
:10284000072000F081FAE0B200F07EFA0020402D6F
:1028500006D0482D06D000F077FA4C2D06D007E0C0
:10286000952000E0872000F06FFA01E000F052FAB6
:102870005FF00A0400F04EFA0106D5D5641E14F08C
:10288000FF04F7D170BD000070B50E460446002568
:10289000FFF78AFFFF2828D1304600F055FAFD2EB9
:1028A0001FD00026207800F04FFA6078A41C00F0BA
:1028B0004BFA761E16F0FF06F4D100F02BFA00F06A
:1028C00029FA00BF00F026FA044600F01F00052890
:1028D00003D06D1CEDB2402DF4D900F01BFA002896
:1028E000FBD004F01F00052801D0002070BD01209E
:1028F00070BD00002DE9F84310B10120BDE8F88358
:10290000DFF8208198F80000800702D598F80000D1
:10291000F4E7FFF711FF00F0DBF900242146402027
:10292000FFF77AFF01286CD13F4E642030704FF4DE
:10293000D5714820FFF770FF01280DD000217720C6
:10294000FFF76AFF01283ED800216920FFF764FFE6
:10295000012838D802243DE000256F4600F0DAF95E
:1029600078556D1CEDB2042DF8D39DF802000128B6
:1029700047D19DF80300AA2843D1450700217720BD
:10298000FFF74AFF012804D829466920FFF744FFD2
:1029900010B130780028F1D1307890B300217A203E
:1029A000FFF73AFF68BB002400F0B4F93855641C07
:1029B000E4B2042CF8D39DF80000400601D50624AB
:1029C0001FE002241DE0012401E0022C02D00021BE
:1029D000412007E000217720FFF71EFF012804D8DF
:1029E00000216920FFF718FF10B130780028ECD1E2
:1029F000307828B14FF400715020FFF70DFF00B17F
:102A00000024454688F80240FEF700FC00F082F9F9
:102A100024B1287820F00100287001E000206870BF
:102A200028786BE7000000201D0000207FB51546C8
:102A30000E4610B1042004B070BD01244B48052E91
:102A400004D00078C00715D00320F4E747492A785E
:102A500049782AB1012A07D0022A08D0042482E04A
:102A600031B10021417003E0FFF766FE00E06970BC
:102A7000002478E000F02CF90B2E52D005DCE6B3F0
:102A8000012E07D0022E69D142E00C2E4CD00D2E23
:102A900064D155E000214920FFF7BEFE70BB102134
:102AA0006846FFF791FE48B39DF800100120B0EB97
:102AB000911F0AD19DF808209DF8091000EB022013
:102AC000084400048009286038E09DF805009DF85E
:102AD0000A1000F00F0000EBD1109DF809109DF8CE
:102AE000072001F0030100EB41009DF8081089095F
:102AF00001EB82019DF8062001E00DE02FE002F0DD
:102B0000030201EB8221C01F491C8140296015E0AE
:102B10004FF40070288011E0FFF746FEFF280DD02B
:102B20001DE00021492001E000214A20FFF774FE4A
:102B3000A8B910212846FFF747FE80B100240EE017
:102B400000217A20FFF768FE40B9002400F0E2F887
:102B5000641CE4B205F8010B042CF7D30424FEF73F
:102B600055FB00F0D7F8204665E700000000002084
:102B70002DE9F0411C4615460E4638B934B12148BE
:102B80000178C90704D00320BDE8F0810420FBE7E9
:102B90008078400700D4550200F09AF84FF400778F
:102BA000012C294604D05220FFF736FE70B11AE0FE
:102BB0005120FFF731FEE0B939463046FFF704FEF9
:102BC000B8B1FEF723FB00F0A5F818E0394630460F
:102BD000FFF7FAFD18B1641E06F50076F6D1002164
:102BE0004C20FFF719FEFEF711FB00F093F824B913
:102BF00005E0FEF70BFB00F08DF80120C4E7002094
:102C0000C2E700000000002008B101207047014821
:102C100000787047000000202DE9F0411C46164660
:102C20000F4638B934B1294D2878C00704D00320A5
:102C3000BDE8F0810420FBE72878400701D5022099
:102C4000F6E7A878400700D4560200F041F8012CBE
:102C500010D0A878800707D500217720FFF7DCFD8A
:102C600021465720FFF7D8FD31465920FFF7D4FD04
:102C700078B11CE031465820FFF7CEFDF0B9FE21B7
:102C80003846FFF701FEC8B1FEF7C0FA00F042F87F
:102C900019E0FC213846FFF7F7FD18B1641E07F56F
:102CA0000077F6D1FD210020FFF7EEFD30B1FEF7F1
:102CB000ADFA00F02FF834B10120B9E7FEF7A6FA1B
:102CC00000F028F8F8E70020B2E70000000000203C
:102CD000002210210148FEF7C7BB00000008014098
:102CE000F8B515460E460B46009204460122022115
:102CF00000F03AF840B93346002280212046009582
:102D000000F032F8002804D0606D40F020006065CB
:102D10000320F8BD0EB5FF208DF8080000208DF8C7
:102D200004000848FEF7A2FE0128FAD14FF47A7099
:102D30000090012301AA02A90248FEF7DEFF9DF8D8
:102D400004000EBD5800002001B50648FEF78EFEB7
:102D50000128FAD14FF47A73012269460148FEF73F
:102D600019FF08BD580000202DE9F8431E46914682
:102D700088460446089DFEF77DFB401B351AFEF78A
:102D800079FB074625480068C0F3CB30684338E03C
:102D9000701C37D0FEF76EFBC01BA84203D215B1E2
:102DA000009860B32CE02068416821F0E0014160A8
:102DB0006068B0F5827F0BD1A068B0F5004F02D0FB
:102DC000B0F5806F04D12068016821F040010160F6
:102DD000A06AB0F5005F09D12068016821F40051B4
:102DE00001602068016841F400510160012084F80D
:102DF0005100002084F850000320BDE8F88300252E
:102E0000401E00902068816838EA010004D000214B
:102E10004945BDD10020F0E70121F9E74800002035
:102E200070470000074810B50178491C017001780F
:102E30000A2903D300210170FFF76EFCBDE81040A2
:102E4000FEF71EBB1C00002030B58FB0282168465D
:102E5000FDF7ADFD14210AA8FDF7A9FD0121080425
:102E6000CDE900100024029402250491CDE9075019
:102E70004FF4E01009906846FEF768FC08B172B69E
:102E8000FEE70F20CDE90A054FF48060CDE90C4044
:102E900002210AA80E94FEF77DFB002801D072B62D
:102EA000FEE70FB030BD704701680C3151E8002FCC
:102EB00022F4907241E80023002BF5D1016814310F
:102EC00051E8002F22F0010241E80023002BF5D148
:102ED000016B012909D101680C3151E8002F22F062
:102EE000100241E80023002BF5D1202180F8421088
:102EF000002101637047000070B504460068016955
:102F0000E26821F44051114301612169A06808433E
:102F1000616908432168CA6841F20C639A4302431D
:102F2000CA6020684169A26921F44071114341617E
:102F30001E492068884202D1FEF7D2FB01E0FEF76D
:102F4000BFFB00EBC00101EB001260686421800050
:102F5000B2FBF0F3B3FBF1F36FF018067343B2FB6F
:102F6000F0F5B2FBF0F605EB8305322303EB051514
:102F7000B5FBF1F5B6FBF1F605F0F00505EB06152E
:102F8000B2FBF0F6B2FBF0F0B0FBF1F06FF018021C
:102F9000504306EB800003EB0010B0FBF1F021681A
:102FA00000F00F002844886070BD00000038014028
:102FB0002DE9F843984617460D460446089E24E03E
:102FC000701C22D0FEF756FAA0EB0800B0421AD8C7
:102FD000CEB12068C168490717D5802D15D0402D86
:102FE00013D00168C94309070FD401680025406860
:102FF00000902046FFF758FF0820606484F8405096
:103000000120BDE8F8830320FBE72068006835EA6B
:10301000000004D00020B842D2D00020F1E7012007
:10302000F9E710B5FFF766FCC0B210BD10B5FFF7A9
:10303000FDFCC0B210BD10B5FFF79AFDC0B210BDC7
:1030400010B5FFF7E1FDC0B210BD10B5FFF7E4FD0C
:10305000C0B210BDFEE70907090E002804DB00F12D
:10306000E02080F80014704700F00F0000F1E0202D
:1030700080F8141D704730380A2801D201207047AB
:103080000020704710B5044600F580500022027100
:10309000521EC262204601F003FE08B1032010BD9B
:1030A000B4F8FE01A0F52A41553901D0022010BD27
:1030B00094F83600B4F8371040EA01210848B0EB24
:1030C000012F08D094F85210B4F8532041EA02219D
:1030D000B0EB012F01D1002010BD012010BD000078
:1030E0000046415400E0401C02780AB18A42FAD1FD
:1030F000D0B27047F0B50022174B144600F580504F
:1031000002EB420653F826506DB10768BD420BD161
:1031100003EB860587686E68BE4205D12D89C68897
:10312000B54204D000E00124521C022AE8D3022A4E
:1031300001D079B904E05CB9022909D01220F0BDB0
:1031400002EB420003EB80004089B0F5807F01D0A4
:103150000020F0BD1020F0BDF825002030B5002182
:10316000064A0C4601EB410352F82350854201D137
:1031700042F82340491C0229F4D330BDF825002031
:1031800000F58050426A006800F5805043898078DD
:103190004343B1FBF3F0121D02CA19B1884203D3B5
:1031A000401AF8E700207047116808447047000093
:1031B00070B5114D0024E86818B1104800F0D2FC39
:1031C000EC600FA002F08EFAAC60402111486C60F8
:1031D000FDF7EDFB0F4821214030FDF7E8FB0D48DE
:1031E00010216130FDF7C1FBBDE870400948212185
:1031F0007130FDF7BABB0000040000202811002048
:103200004F4B3A2046696C652073617665640D0A00
:10321000000000005425002000F58050891E4269FE
:10322000921E8A4201D800207047826A807801FB92
:10323000002070472DE9F04180460F0000F58054D2
:1032400007D0404601F098FA022809D20120BDE8D3
:10325000F081E66816B16069B04207D8012605E042
:10326000411CF4D061698142F1D83E46354660691F
:103270006D1CA84202D80225022E0AD329464046D8
:1032800001F07AFA38B1411CE1D00128DFD0B54213
:10329000EDD10020DBE76FF070422946404601F097
:1032A000FDFF30B957B12A463946404601F0F6FFD6
:1032B00020B101280DD001252846C8E7E560206926
:1032C000411CF9D0401E2061607940F0010060711E
:1032D000F2E74FF0FF35EFE72DE9F84F88460D682C
:1032E00000E06D1C29782F29FBD05C29F9D000F56E
:1032F000805A0024DAF820702646A85D761C202823
:1033000017D32F2815D05C2813D0FF2C31D20121E0
:1033100000F0ECFF5FEA00092BD0B9F1800F04D276
:10332000014668A0FFF7DEFE18BB27F81490641C66
:10333000E3E7AA19C8F80020202801D2042516E0E6
:10334000002514E007EB440030F8020C20280DD0D3
:103350002E280BD06CB1002027F814000B2220215E
:10336000DAF8180001F095FC002606E0641E002C37
:10337000E8D10620BDE8F88F761C37F81600202823
:10338000FAD02E28F8D01EB145F0030500E0641EE7
:103390002CB107EB440030F8020C2E28F7D10020A6
:1033A00081464FF0080B009037F8160006F1010631
:1033B0005FEA000824D0B8F1200F04D0B8F12E0F36
:1033C00004D1A64202D045F00305EDE70098584528
:1033D00001D2A6421AD1BBF10B0F0FD0A64201D0E9
:1033E00045F003050CD84FF0080000904FEA8960C3
:1033F00026464FF00B0B4FEA1069D5E745F0030561
:10340000DAF818000178E52938D039E04046B8F1FB
:10341000800F10D3002100F069FF5FEA000805D09B
:103420002B4901EB080010F8800C804645F002059E
:10343000B8F1000F04D0014626A0FFF753FE20B1DB
:103440004FF05F0845F003050FE0A8F1410019288F
:1034500002D849F0020908E0A8F16100192804D84F
:10346000413049F001091FFA80F8DAF81820009974
:1034700002F801800098401C009095E7052101703A
:10348000BBF1080F03D14FEA89604FEA1069C9F315
:103490008100032803D06FEA0901890701D145F0B3
:1034A0000205A90709D409F00301012901D145F05A
:1034B0001005012801D145F00805DAF81800C57299
:1034C000002057E7222A3A3C3E3F7C7F0000000064
:1034D000665F00082B2C3B3D5B5D0000401E022810
:1034E00015D20C4B00EB400203EB82014889B0F58A
:1034F000807F05D008B1401E80B2488110B104E041
:103500000020FAE7002043F8220000207047022044
:1035100070470000F82500202DE9F14F82B000210E
:10352000029800F087FA00287AD1029DFF2005F565
:1035300080554FF6FF7A00908146A5F824A02969AE
:10354000286801F0ADFB06000DD16C69207848B108
:10355000E17AE52801F03F016DD00A0704D50F2973
:1035600069D107E0042671E00F2903D0B9F1000FFB
:103570004AD04FE0296A89B3420606D5627B0092A1
:1035800020F04000EA888146AA84484535D1627B14
:103590000098824231D101912078A04620F040006D
:1035A000401E00EB80010027DFF8A8B001EBC00649
:1035B000012400BF1BF8071001EB0800008874B15C
:1035C00000F0B0FE0446FF2E17D2019830F8160026
:1035D000761C00F0A7FEA0420FD102E02FE050457C
:1035E0000BD17F1C0D2FE5D398F80000400608D5BD
:1035F0003CB1019830F8160018B1FF2000F0FF0927
:103600001DE0A9F10100F9E7204602F0C5F9009993
:1036100088421BD0A869C17AC9070CD10A2102E0EF
:1036200015E0491E06D314F8012B10F8013BD21AFD
:10363000F7D000E052B14FF0FF09A5F824A0002117
:10364000029800F009F806003FF479AF3046BDE873
:10365000FE8F0000E65F00082DE9F04100F5805480
:103660000F46E688761C3004000C38D0216991B3EF
:10367000206800F5805253895B09B6FBF3F503FB24
:103680001563002B67D1491C2161E16821B353897F
:1036900092785B09B6FBF3F3521E13425BD101F043
:1036A0006BF8054601281FD9681C39D0206841F203
:1036B00014010958A94248D86FB1E168FFF7BAFD73
:1036C00005000FD0012D0FD0681C29D0206802F012
:1036D000C4F928BB0AE002E01089B0423BD80420BC
:1036E000BDE8F0810720FBE70220F9E741F20A017B
:1036F00020680A5A002101F0CCFA29462068FFF719
:103700008BFD2168002701F580514FF00108C86248
:103710000FE000BF80F80480206802F09EF908B135
:103720000120DDE7206800F58050C16A491C7F1C3C
:10373000C162206800F580508178B942EAD82168DA
:1037400001F58051C96AC91BC162E560294620683C
:10375000FFF762FD2061E68041F20A012068095A04
:103760004909B6FBF1F201FB126100EB4110606107
:103770000020B5E72DE9F35FFF24834627460426A2
:103780004FF6FF784FF0000900F5805567E0286894
:1037900001F086FA060066D16869017881B1C27AC3
:1037A000E52902F03F0209D02E2907D022F020039C
:1037B000082B07D0B446019B9C4506D0FF2440E06F
:1037C000042650E04FF0010CF5E70F2A01D0ACBB06
:1037D0003EE04A0605D5477B21F04001EA880C46C9
:1037E000AA84A1422BD1417BB94228D10178DFF8CC
:1037F00080A001F03F01491E01EB810202EBC101F3
:103800000022D5F820C001261AF8023003441B8894
:1038100036B1FF2913D22CF811301E46491C01E0A5
:1038200043450CD1521C0D2AEED30078400603D537
:10383000FF2904D22CF81190641E01E00CE0FF2453
:10384000E4B200215846FFF707FF060007D00AE060
:1038500002F0A2F8B84208D0A5F8248005E0296952
:10386000002994D10EB1C5F810903046BDE8FC9FF8
:10387000E65F00082DE9F14F84B00C22049C6846F5
:1038800004F58054A769266A394601F0F9F99DF8D4
:103890000B00C00718D00020F872012520622B46CB
:1038A00032466946384600F0BBFE0498FFF734FE06
:1038B00010B96D1C642DF2D3642D0BD004280AD1ED
:1038C0009DF80B00F87226629DF80B0080070FD55B
:1038D000002004E0072005B0BDE8F08F401C36F85A
:1038E00010100029FAD10D211930B0FBF1F600E0DB
:1038F0000126049D0021284600F09CF8A8B94FF04D
:10390000000805F580573969386801F0C9F960B9D0
:1039100078690078E5280BD050B14FF000080121FC
:103920002846FFF799FE0028EDD0042812D012E0B7
:1039300008F101083046B045F1D1461E5FEA060A9B
:1039400059D0E1880498A1EB0A0100F073F8050052
:1039500003D06BE00720054668E0A06902F01CF880
:1039600003902169206801F09BF905005ED161692F
:10397000D4F82090039848730F20C8720020087371
:1039800088760AF0FF0BC876ABF1010000EB8002ED
:1039900002EBC00500234FF6FF7E254E4A1C01E0D6
:1039A000604503D039F81500F4466D1CF75CC85526
:1039B00016F80380070A08F8027000B960465B1C1D
:1039C0000D2BEDD3704502D039F8150008B94BF036
:1039D000400B81F800B02168012001F58051087189
:1039E00000210498FFF738FE05001FD1AAF101005D
:1039F0005FEA000AB5D12169206801F051F905009C
:103A000014D120220021606901F043F9D4E90501B5
:103A10000B2201F035F9A0696169C07A00F0180045
:103A200008732168012001F580510871284652E78A
:103A3000E65F000870B500F580540D46E180A3688C
:103A4000012B42D0206800F58050416999423CD951
:103A500023B90178032906D1436A23B141898078CB
:103A60004E09464312E00189A9422ED9406A13E06B
:103A700000F082FE0346401C25D0022B25D320688F
:103A800000F58050406998421FD9AD1B2068B542AF
:103A90001946EDD2FFF7C0FBE360B0B121680A46DA
:103AA00001F580514B895B09B5FBF3F318442061A4
:103AB00048894009B5FBF0F100FB115002EB4010C2
:103AC0006061002070BD012070BD022070BD00004B
:103AD000084910B50B5C002253B901220A540A1898
:103AE00001EB8000127A4068016810468847024660
:103AF000104610BD1028002030B4054C231804EBEC
:103B000080001B7A406804691846A44630BC6047B0
:103B10001028002030B4054D2C1805EB8000247AC5
:103B2000406885682046AC4630BC604710280020BD
:103B3000044A111802EB8000097A4068426808467E
:103B4000104700001028002030B4054D2C1805EB5C
:103B50008000247A4068C5682046AC4630BC604787
:103B60001028002010B5044600F08CFA00280DD172
:103B7000204601F0A9FF002808D104F58054A06A6E
:103B8000FFF7ACFC002801D10021216010BD10B569
:103B9000044601F099FF00280AD104F58054E16938
:103BA00021B10846FFF79AFC002801D100212160CD
:103BB00010BD00002DE9F74181B0904602980090B9
:103BC000684600F0ADFE040003D50B2004B0BDE84C
:103BD000F081104E002756F824502DB12846FFF7EB
:103BE000BDFA05F580552F700198002803D000BF5D
:103BF0004FF480510F5446F8240002D0B8F1010F61
:103C000001D00020E2E7002202A901A800F09CFBFD
:103C1000DCE70000500000202DE9F74FADF5825D94
:103C200098B100F580564FF0000802F01F0741F2EE
:103C3000440127F0010269440DF58050C6F8008068
:103C400000F082FB040006D0D8E0092013B00DF587
:103C5000805DBDE8F08F41F228010DF58050694488
:103C6000816168490162EB46416C584600F0A2FC54
:103C700004000DF5805045690BD11DB1780803D0C3
:103C8000012102E0062404E000215846FFF732FA41
:103C9000044617F01C0F75D04FF0010AECB1042C4C
:103CA00014D158490020183902E0401C022805D2DE
:103CB00000EB400251F82220002AF6D1022803D05E
:103CC0005846FFF7D7FD00E0122004460DF580505E
:103CD00047F00807456954B190E0E87A10F0110FF9
:103CE00001D007248AE0780701D5082486E0380748
:103CF00056D500F0B4FDA873010AE973010C2974CC
:103D0000000E687485F80B8085F81C8085F81D808E
:103D100085F81E800DF5805085F81F8000682946C3
:103D200000F0EEFE81460021284601F02DFE0DF543
:103D30008050B9F1000F006800F5805080F804A0B1
:103D40002CD00DF580504946006800F58050D0F821
:103D50002CA00DF58050006801F090FC04004DD1BE
:103D60000DF58050A9F10101006800F58050C16097
:103D70000DF580505146006800F092FF04000BD012
:103D80003CE0FFE7D4BBE87AC10601D5042435E066
:103D9000B90701D5C007A4D1380701D547F02007DE
:103DA0000DF58050006800F58050C06AC6E907052F
:103DB000780801D0012100E00021584600F054FEAF
:103DC000B062E8B1B7710DF5805086F807804746BC
:103DD0000068294600F094FE3061287FD5F81D1058
:103DE00040EA0120C6E90270B7610DF580507762A4
:103DF0000068306000F58050C088B080204625E71C
:103E00000224FBE710260020F3B585B006000BD096
:103E1000002206A9684600F097FA05004FF0000757
:103E200006F5805403D032E0092007B0F0BD0098B9
:103E3000206001A8A061174820623046069900F072
:103E4000B9FB050013D1616931B1C87AC0061DD52F
:103E5000009800F055FEA0600098002100F5805009
:103E6000C088A0803046FFF7E5FD050002D0042D94
:103E70000CD00CE0A06838B10021304600F0F4FD11
:103E8000E06128B9122502E0E76101E0052527601D
:103E90002846CAE7102600202DE9F04F884687B053
:103EA0000021994615468346196001F00DFE002851
:103EB00012D10BF58054E07900280DD1A079C0070C
:103EC00009D0D4E90201081A01274FF0020A8542FD
:103ED00000D90546A2E0072007B0BDE8F08F2068B2
:103EE000A16800F580535E89B1FBF6F206FB121261
:103EF000002A73D1B1FBF6F29B785B1E1A4012F0D8
:103F0000FF0610D129B1626A2AB15846FFF738F985
:103F100004E0206902E0616900F02EFC02281FD352
:103F2000411C55D0606161692068FFF775F9B8B12F
:103F300030440090206800F580504189B5FBF1F1D4
:103F4000039151B3721881788A4201D9891B039178
:103F500040784146039B009AFFF7DCFDC0BB03E0BD
:103F600084F807A00220B7E7A07940060ED5A16922
:103F70000098081A0399884208D2216801F58051F7
:103F80004A89594600FB028000F07AFE206800F55D
:103F9000805046890398464336E0A26900998A42D8
:103FA0001AD0A179490609D5407801235946FFF76F
:103FB000CBFD68B9A07920F04000A07120680123F2
:103FC00000F5805059464078009AFFF7A3FD18B1DC
:103FD000E771012080E701E00098A0612068A168F6
:103FE00000F580504089B1FBF0F200FB1212861AF6
:103FF000AE4200D92E46B1FBF0F200FB121159443B
:104000003246404600F03CFEA068B0443044A06018
:10401000D9F800008119AD1BC9F80010002D7FF4FC
:104020005EAF002058E70000FEB50F46054601F0E0
:104030004BFD00281BD1DFB105F580541048C4F8B2
:1040400018D0206200212846FFF794FB00260428A0
:1040500013D000280BD13946284600F002FC00217D
:104060002846FFF7F9FA042801D100202661FEBD99
:1040700000212846FFF7DEFCFEBD2661EBE70000CD
:104080001026002070B5054601F01EFD002811D154
:1040900005F58054A1798A060CD548060FD520680D
:1040A000012300F5805029464078A269FFF74CFDB6
:1040B00008B1012070BDA07920F04000A071E16935
:1040C000206800F0EDFD0028F4D1256AE87A40F080
:1040D0002000E872207B2877A089000A6877E068D2
:1040E000000CA877E068000EE8772846216901F007
:1040F0004BFC00F0B4FBA875010AE975010C2976A8
:10410000000E68760020A874E874A079012120F0E0
:104110002000A071206800F5805001712068BDE882
:10412000704001F046BC2DE9FC5F884600219946AD
:1041300015468346196001F0C7FC002808D10BF52D
:104140008054E079002803D1A079800702D40720A9
:10415000BDE8FC9FA068012741194FF0020A814287
:104160007AD3B5E02068A168024600F58050438903
:10417000B1FBF3F603FB1616002E6ED1B1FBF3F381
:104180008078401E034013F0FF0618D129B1606A01
:1041900038B15846FEF7F4FF07E0206938B900212E
:1041A00000E061691046FFF745F8002854D0012867
:1041B00033D0411C62D06061216901B92061A079CE
:1041C00040060DD52068012300F5805059464078FF
:1041D000A269FFF7B9FCF0BBA07920F04000A07104
:1041E00061692068FFF718F8B8B130440190206881
:1041F00000F580504189B5FBF1F1009171B372185F
:1042000081788A4201D9891B0091DDE9003240782A
:104210004146FFF799FCF0B903E084F807A00220BB
:1042200096E7A1690198081A009988420CD2216882
:1042300001F580514A8900FB0281584600F020FDBB
:10424000A07920F04000A071206800F580504689D8
:104250000098464332E011E03DE014E0FFE7A16939
:10426000019A91420DD0D4E90212914209D24078CC
:1042700001235946019AFFF74DFC10B1E771012067
:1042800066E70198A0612068A16800F58050408928
:10429000B1FBF0F200FB1212861AAE4200D92E4694
:1042A000B1FBF0F200FB121101EB0B00324641466C
:1042B00000F0E6FCA07940F04000A071A068B04496
:1042C0003044A060D9F80000AD1B3044C9F80000AC
:1042D000002D7FF447AFD4E90201884200D9E060A5
:1042E000A07940F02000A071002031E7802804D39D
:1042F0000B4A51B1FF2801D90020704702EB400062
:10430000A0F58050B0F8000F704732F811308342AA
:1043100003D0491C89B28029F7D38031C8B27047D5
:10432000206000080021064B00E0491C33F81120F2
:10433000002A04D08242F8D1024830F811007047B8
:1043400020610008006300082DE9FF5F4FF0000BBB
:104350000546C0F800B01746084600F0E1FA06002E
:1043600003D50B2004B0BDE8F09F8F4850F82640DD
:104370009CB12C6004F58055287820B16878FFF74F
:10438000D7FBC1070BD085F800B0F0B26870FFF71B
:104390009FFBC10708D00320E4E70C20E2E70FB140
:1043A000400704D40020DDE71FB1400701D50A20F3
:1043B000D8E741F20A01621868780221FFF79CFBF6
:1043C00078BB6889B0F5007F34D3B0F5805F31D811
:1043D000002631462046FEF755FE012826D1002052
:1043E0004FEA0D0204EB001191F8C23101F5DF71C3
:1043F0002BB10B7AD1F8091043EA012100E000212A
:1044000042F82010401C0428ECD300274FEA020891
:1044100058F8276036B131462046FEF733FE10B912
:104420000AE007E002207F1C042FF1D3032801D00B
:10443000F0BB01E0012095E7B4F80B00B5F80AC025
:1044400060455FD1E18A29B994F82400D4F8251099
:1044500040EA0121A961207C8A46E870012801D048
:1044600002284FD100FB01F9607BA87000B3411E08
:10447000084247D1B4F811104FEA5C12B1FBF2F3D5
:1044800002FB131329819BB9B4F813702FB994F868
:104490002030D4F8217043EA0727E38943B1B1FB08
:1044A000F2F803EB0902424497422BD3BF1A00E013
:1044B00028E0B7FBF0F028B3012740F6F678404536
:1044C00000D302274FF6F678404500D30327801C1F
:1044D0003244AA6233446861C5E90763032F13D0ED
:1044E00081B103EB09016962022F18D000F00101CC
:1044F00000EB400001EB5000401E6044B0FBFCF1BB
:1045000051450ED90D202DE70029FBD194F82C1030
:10451000D4F82D20800041EA02216962ECE74000D6
:10452000EAE74FF0FF302861E86080206871032FD0
:104530002ED1208E01282BD12046711C00F0B0FB1B
:1045400030BB85F805B0B4F8FE01A0F52A41553915
:104550001ED12078D4F8011040EA01201349884286
:1045600016D194F8E401D4F8E51140EA012010498D
:1045700088420DD194F8E801D4F8E91140EA01200D
:10458000286194F8EC01D4F8ED1140EA0120E860CC
:1045900005492F70091F0888401C0880E8802046C4
:1045A000FEF7DCFDFEE600005000002052526141A3
:1045B0007272416173B50546019801782F2901D0C7
:1045C0005C2901D1401C019005F580540026A660AD
:1045D00001980078202805D200212846FFF72AFA02
:1045E00066617CBD01A92846FEF776FE0028F8D159
:1045F0002846FEF791FFA169C97A28B10428F0D1B5
:104600004907EED405207CBD4907FCD46169C87A0E
:10461000C006F7D5206800F073FAA060E2E700005A
:104620007CB516461C4605460B2200F029FB052CDE
:1046300011D91A4A0CE00021B61C2346044663F344
:104640005F044008E30300D55440491C1029F4D30B
:1046500030880028EFD107214FEA0D0204F00F0047
:104660003030392800D9C01D5054491E2409F5D1D5
:104670007E205054002000E0401C884202D22B5C77
:10468000202BF9D1082902D2535C491C00E02023D9
:104690002B54401C0828F5D37CBD000021100100DC
:1046A000F0B5BFB0224932AD00200A5C2A54401C4C
:1046B0000C28FADB002437AE2A5D06EB44001DA16E
:1046C000FBF798FD641C0C2CF6DB00268DF8F460DB
:1046D00037AB1AA2322125A8FBF7A0FD25A801F0CF
:1046E00001F81BA11C4DD1E90001CDE935014FF4C2
:1046F0007A71CDE9001510200290082335AA0C210B
:1047000032A800F071FB002403AF2A5D07EB4400E0
:104710001249FBF76FFD641C102CF6DB8DF82C6042
:1047200003AB0FA264210CA8FBF778FD3FB0F0BDEE
:10473000E8F7FF1F25303258000000004465766915
:104740006365205549443A2025730D0A0000000096
:104750000123456789ABCDEFE625002040510008D5
:104760004465726976656420414553206B65793AEA
:104770002025730D0A0000002DE9F0470D4607467D
:1047800002290DD307F580546069A84208D9207822
:104790004FF0FF36012807D0022832D0032844D03A
:1047A00001263046BDE8F087618905EB5508B8FB66
:1047B000F1F0216A0144384600F072FA0028F0D185
:1047C0006189B8FBF1F201FB128008F1010817F8CA
:1047D0000090B8FBF1F0216A0144384600F060FA1D
:1047E0000028DED16189B8FBF1F201FB1280395C4F
:1047F00049EA0120E90701D00609D2E7C0F30B0618
:10480000CFE76089216A4008B5FBF0F001443846E3
:1048100000F046FA0028C4D161896800B0FBF1F2CB
:1048200001FB120038440688BBE76089216A8008D2
:10483000B5FBF0F00144384600F032FA0028B0D160
:104840006189A800B0FBF1F201FB12003844017845
:10485000D0F8010041EA002020F07046A1E70020D6
:1048600070472DE9F04100F580500C4601F1090236
:10487000016971B3002543692E26595D6D1C2029FD
:1048800019D0052900D1E521092D01D102F8016BCC
:10489000A1F14107192F0CD81F7B092D02D34FF02E
:1048A000100C01E04FF0080C17EA0C0F01D020317A
:1048B000C9B202F8011B0B2DDFD3D97A2172197FFF
:1048C000D3F81D5041EA05212160198BA180D98AB6
:1048D000E1804FF0000882F80080A669002E1DD00C
:1048E00001690025C1B1E169B1B1818CA1F57F42B7
:1048F000FF3A11D0076A0BE00021FFF7F7FC18B16F
:10490000E169491EA94201D8002505E070556D1CDA
:1049100037F8020B0028EFD106F80580BDE8F081DA
:1049200010B504464FF0FF302268002A13D011461C
:1049300000E0491C0B78202B0ED33A2BF9D112F84A
:10494000013B303B0A2B06D28A4204D1002B02D114
:10495000491C1846216010BD002010BD2DE9F04112
:1049600014460E460746FBF71FFFC2074FF0FF3104
:1049700004D100EBD0704510A54202DD0846BDE829
:10498000F081002406E0321907EB440003A1FBF795
:10499000DBFD641CAC42F6DB2846F0E72532686894
:1049A000780000002DE9F041C4B00C4607461D46D2
:1049B000164640211CA8DDF82881FBF7F8FF4021AE
:1049C0002CA8FBF7F4FF402C11D9684600F0FCFE40
:1049D00022463946684600F0B3FF1CA9684600F03D
:1049E00091FE20221CA92CA8FBF78DFF09E022468E
:1049F00039461CA8FBF742FF224639462CA8FBF794
:104A00003DFF00201CA92CAA0B5C83F036030B543D
:104A1000135C83F05C031354401C4028F4DB6846AD
:104A200000F0D2FE40221CA9684600F089FF2A4609
:104A30003146684600F084FF3CA9684600F062FEFB
:104A4000684600F0C1FE40222CA9684600F078FFBD
:104A500020223CA9684600F073FF4146684600F0FA
:104A600051FE44B0BDE8F081F0B500F58053234815
:104A70001C68002202EB420550F82560A64209D1CD
:104A800000EB85059F686E68BE4203D12D89DE88E4
:104A9000B54202D0521C022AECD3022A18D10022BD
:104AA00002E0521C022A05D202EB420550F82550C2
:104AB000002DF6D1022A13D002EB420540F8254022
:104AC00000EB85049E686660DB8823810023638198
:104AD000002902EB420100EB8101498902D019B1A2
:104AE0000020F0BD491C01E04FF4807102EB42034D
:104AF00000EB83004181501CF0BD0000F825002030
:104B0000024602F58052488B1278032A02D1898A24
:104B100040EA01407047000008B5FCF7B9FCFEF719
:104B200093F9FDF787FDFDF777FD344832490025FD
:104B300001604FF4E131C0E901150C21C560C0E905
:104B400004518561C561FDF7E4F908B172B6FEE76D
:104B5000FDF7BCFD4FF4FA70FCF784FB28A000F0D1
:104B6000C1FDFFF79DFD254801222AA14830FFF72E
:104B700021F8294C207018B128A000F0B3FD11E0F5
:104B80002EA000F0AFFD354E012205213046FCF786
:104B90006BFC4FF47A70FCF765FB00220521304670
:104BA000FCF762FC00F082FF2D4F40F2FF360A2333
:104BB000012269461148FDF717FA0028F7D19DF840
:104BC00000000D2808D00A2806D06188B1420DD215
:104BD0007854491C6180EAE760880028E7D03D549A
:104BE0001F4800F059F900F061FFE0E700F05EFFB8
:104BF0001CA000F077FDDAE700380140B00000208B
:104C000053544D333220496E697469616C697A6519
:104C1000640D0A0000000000040000204552524FBD
:104C2000523A2043616E6E6F74206D6F756E742002
:104C3000534420636172640D0A00000053442063F2
:104C4000617264206D6F756E746564207375636343
:104C500065737366756C6C790D0A0000000C014079
:104C6000542100204552524F523A20436F6D6D61DE
:104C70006E6420746F6F206C6F6E670D0A00000009
:104C800004E000BF11F8013B00F8013B521EF9D2CD
:104C90007047C9B201E000F8011B521EFBD27047F9
:104CA0002DE9F04100F580540746E06A0E460025E4
:104CB000B0420ED0384600F0D0FE050009D1607831
:104CC000012332463946FEF725FF08B16E1E012545
:104CD000E6622846BDE8F08130B5234C05469DB01C
:104CE000E06820B12148FEF73DFF0020E0600A2285
:104CF00029461E48FEF790FF207050B100902B46C9
:104D00001BA2642101A8FBF789FA01A800F0EAFCC4
:104D100023E02348007818B3102219A92048FFF790
:104D20001DFE102801D01FA012E00F4B10221433DB
:104D300019A90E48FFF7F7F92070031E02D1606928
:104D400010280DD01FA264216846FBF767FA684659
:104D500000F0C8FC0548FEF705FF00201DB030BD7F
:104D60000120E060FAE70000040000202811002084
:104D70004552524F523A204661696C656420746F07
:104D8000206F70656E2066696C6520257320666FE4
:104D90007220777269746520282564290D0A000045
:104DA000C52500204552524F523A20496E76616C1B
:104DB00069642049562068657820646174610D0A31
:104DC000000000004552524F523A204661696C651E
:104DD0006420746F207772697465204956202825F5
:104DE00064290D0A000000002DE9FF4FA5B0012441
:104DF0001E4600250DF1040BDDF8D0A0DDF8C880BB
:104E000044E0324609A82799FBF738FD09A8210E8E
:104E100081553044210C4170210A8170C470CDF855
:104E200000B0DDE92501D946331D09AAFFF7BAFD17
:104E3000202201A919A8FBF766FDCB4601270DF139
:104E4000640914E0CDF80090DDE92501202319AABA
:104E5000FFF7A8FD002059464A460B5C12F800C037
:104E600083EA0C030B54401C2028F6DB7F1C4745CB
:104E7000E8D3AAEB0507202F00D9202733983A461C
:104E8000284401A9FBF7FAFC3D44641C5545B8D3FE
:104E900029B0BDE8F08F00002DE9F041ADF5865D49
:104EA0000546FBF781FC002403E000BF01F8014C3C
:104EB000401E002806DD291811F8012C0D2AF5D016
:104EC0000A2AF3D0062287A12846FBF78CFC00288B
:104ED00025D00B2285A12846FBF785FC864E05F1DF
:104EE0000B0700284FD00B2284A12846FBF77BFC40
:104EF00000287CD084A12846FBF7ACFD002877D0A1
:104F000084A12846FBF7A6FD002872D0052283A1C4
:104F10002846FBF768FC00286CD082A0DBE01CAEC2
:104F200005F106084021304600F034FB3046FBF71F
:104F30003BFC20B36F462EAD384600F045FC3046B2
:104F4000FBF732FC02463146384600F0F9FC3FAE32
:104F50003146384600F0D6FB002705EB4700F25DEE
:104F600077A1FBF747F97F1C202FF6DB85F840403F
:104F700029464046FBF76EFD18B173A068E076A0A5
:104F800066E07CA064E0384665A1FBF7DBFB0746E2
:104F900063A10020FBF7D6FB804661A10020FBF750
:104FA000D1FB05463FB3B8F1000F25D01DB33F221A
:104FB00039467348FBF722FD71480A22002180F828
:104FC0003F404046FBF784FB70606D482022294635
:104FD0007130FBF713FD6A48713080F8204071385A
:104FE000B460FFF779FE002834D066A073E005E0D6
:104FF00034E039E063E0FFE76BA06CE0384648A19D
:10500000FBF7A0FB044646A10020FBF79BFB0546EF
:1050100054B14DB108AE102231462046FFF79EFC38
:10502000041E03DC69A013E070A011E06F4620228B
:1050300039462846FFF792FC202801D074A007E0EB
:10504000A1B23A46304600F055FD002802D07AA0C1
:1050500000F048FB0DF5865DBDE8F0810DF5865D3D
:10506000BDE8F041FEF7A4B809AC78A12046FEF7F0
:10507000CBFE307008B176A0EAE7A04641F24C07BB
:105080006C466F440DF1090521464046FEF7CCFF02
:10509000307080B99DF8090068B19DF80800C0061D
:1050A000F2D42B4673A264213846FBF7B7F8384692
:1050B00000F018FBE8E74046FEF769FDCAE7681D07
:1050C00017A1FBF73FFB28B10DF5865DBDE8F04168
:1050D00000F074B969A00DF5865DBDE8F04100F0FF
:1050E00001BB00004C4F47494E3A000053454E4427
:1050F0005F53544152543A000400002053454E443B
:105100005F4348554E4B3A0053454E445F454E442D
:10511000000000004C495354000000005245414437
:105120003A0000004552524F523A20556E6B6E6F56
:10513000776E20636F6D6D616E640D0A0000000074
:1051400025303278000000004C4F47494E5F464101
:10515000494C0D0A000000004552524F523A204E71
:105160006F2070617373776F72642073746F7265F0
:10517000640D0A004C4F47494E5F4F4B0D0A00002B
:10518000542500204F4B3A20526561647920746F9A
:1051900020726563656976652066696C6520636861
:1051A000756E6B730D0A00004552524F523A2049FA
:1051B0006E76616C69642053454E445F535441528E
:1051C0005420666F726D61740D0A00004552524F93
:1051D000523A20496E76616C6964206368756E6B23
:1051E0002068657820646174610D0A004552524F51
:1051F000523A20496E76616C69642053454E445F93
:105200004348554E4B20666F726D61740D0A000065
:105210004552524F523A20496E76616C6964206360
:1052200068756E6B205348413235362068657820AA
:10523000646174610D0A00004F4B3A204368756E3B
:105240006B207772697474656E0D0A002F00000080
:105250004552524F523A204661696C656420746F22
:10526000206F70656E206469726563746F72790D6A
:105270000A00000025730D0A000000004552524F3D
:10528000523A20496E76616C69642052454144204F
:10529000666F726D61740D0A000000002DE9F04721
:1052A00017460D460646022904D306F58054606968
:1052B000A84202D80220BDE8F087217807F0FF0954
:1052C0004FF0010A012924D002295DD00329F1D130
:1052D0006089216A8008B5FBF0F001443046FFF791
:1052E000DFFC0028E7D16289A900B1FBF2F302FBE1
:1052F00013118A194FF07043D2F8011003EA01210B
:10530000394311700B0A53700B0C9370090ED17056
:1053100050E0618905EB5508B8FBF1F0216A0144C2
:105320003046FFF7BDFC0028C5D16189B8FBF1F21A
:1053300001FB1280304408F10108E90703D001782D
:1053400069F31F1100E03946017084F804A06189F7
:10535000B8FBF1F0216A01443046FFF7A1FC0028B8
:10536000A9D16289B8FBF2F302FB13813144EA0749
:1053700002D0C7F3071205E00A78C7F3032302F04F
:10538000F0021A430A7015E06089216A4008B5FBF3
:10539000F0F001443046FFF783FC00288BD162898E
:1053A0006900B1FBF2F302FB131131443A0A81F8B0
:1053B00000904A7084F804A07DE700002DE9F047D2
:1053C000ADF58C5D0446014601AE01223046FEF784
:1053D00023FC4A4D287050B1234641F2EC046C4442
:1053E000009047A264212046FAF718FF60E0434B83
:1053F00041F250176F44103310223946B1463046FF
:10540000FEF74AFD287010B92869102812D02346EB
:1054100041F2EC046C4444A264212046FAF7FEFEFB
:10542000204600F05FF94846FEF79CFB0DF58C5DC9
:10543000BDE8F087002441F2C808E8442126604214
:1054400006EB40013B5D08EB440041A2FAF7E6FEA3
:10545000641CE4B2102CF2D341F294046C44434631
:105460003DA232212046FAF7D9FE204600F03AF953
:10547000CA464FF000080DF58B5704F158091F4B31
:105480001022103339465046FEF706FD287018B931
:10549000286908B100241AE05046FEF763FB41F288
:1054A00030046C4443462EA264212046FAF7B6FE2F
:1054B000204600F017F9B9E7604206EB40013B5D7A
:1054C00009EB440022A2FAF7A9FE641CA4B22869E1
:1054D0008442F1D32969002041F2101409F8110027
:1054E0006C444B4629A223212046FAF797FE20461A
:1054F00000F0F8F829698844C1E7000004000020A2
:105500004552524F523A204661696C656420746F6F
:10551000206F70656E2066696C65202573202825D4
:1055200064290D0A000000004552524F523A2046AD
:1055300061696C656420746F2072656164204956EE
:105540002066726F6D2066696C652025730D0A00F8
:10555000253032780000000049563A25730D0A00C4
:105560004F4B3A2046696C65207265616420636F19
:105570006D706C657465642C2073656E7420256C89
:10558000752062797465730D0A00000025730D0A99
:1055900000000000F0B50F46B5B005461A490020DE
:1055A0000DF1C00411F8012B2254401C1028F9D32E
:1055B00016496846FBF70EFE30A96846FBF705FE64
:1055C0009DF8CF100026481E0F2817D8C1F11000F3
:1055D000024605E0235C8B4201D00DA00FE0401C89
:1055E0001028F7D31446BA4206D230A92846FBF752
:1055F00045F92E5535B0F0BD0DA000E018A000F023
:1056000071F82E70F6E7000000FC0008E625002087
:105610004552524F523A20496E76616C696420704F
:10562000616464696E6720666F726D61740D0A0053
:105630004552524F523A20446563727970746564E2
:1056400020737472696E6720746F6F206C6F6E6761
:1056500020666F72206275666665720D0A00000032
:105660004552524F523A20496E76616C69642070FF
:10567000616464696E670D0A000000002DE9F04165
:105680000F468046022918D308F580556869B8424C
:1056900013D900261FE039464046FFF76DF8040095
:1056A0001CD0012C09D0601C09D00022394640468C
:1056B000FFF7F4FD060011D103E002260EE00126FB
:1056C0000CE02869411C05D0401C2861687940F035
:1056D0000100687127466869B842DCD83046BDE8E9
:1056E000F081000010B50446FBF75EF8214682B257
:1056F000BDE810404FF0FF330148FCF7CDBC00007F
:10570000B000002070B504460D46006C80210026D4
:105710003828215401D305E02654401C3828FBD3F7
:105720000BE02654401C4028FBD32146084600F0DD
:1057300071F838212046FBF73AF9D4E91220216CA0
:105740003834C90051187041C4E90410227CE27158
:105750000A0A42EA0062A2710A0C42EA004262713D
:10576000020242EA116020716069E070010AA170D2
:10577000010C6170000E04F838092146084600F05B
:1057800049F8002218235042216D03EBC000C140AC
:10579000A954666DC640A9180E71A66DC6400E725A
:1057A000E66DC6400E73266EC6400E74666EC64029
:1057B0000E75A66EC6400E76E66EC640521C0E777B
:1057C000042AE0D370BD000000210164C0E9121179
:1057D0000849016508494165084981650849C1656D
:1057E0000849016608494166084981660849C16659
:1057F0007047000067E6096A85AE67BB72F36E3CCE
:105800003AF54FA57F520E518C68059BABD9831F8B
:1058100019CDE05B2DE9F04FC8B0002213466F466A
:10582000CC181B1D2568E4782DBA25F0FF0525430B
:1058300047F82250521C102AF2D31BE007EB8201DA
:1058400051F8083C4FEA734484EAF34484EA932411
:1058500051F83C3C4FEAF31585EAB34585EAD3039A
:10586000234451F81C4C51F8401C2144194447F87A
:105870002210521C402AE1D3036D4793416D46919B
:10588000846D4594C26D44929246026E4392456E79
:105890004295A946856E4195C66E4096B346002650
:1058A0004FEAB21787EAF22787EA726C02EA090721
:1058B00025EA020887EA0807BC44204F57F82680EB
:1058C00008EB0B07BC445DF82670AB460CEB070EEB
:1058D0004FEAB30787EA733787EAB35C81EA0407C4
:1058E0004D4601EA040891461F400AEB0E02A2460B
:1058F00087EA08070C46BC441946761C0EEB0C03DD
:10590000402ECDD3479E33440365469B19444165E1
:1059100045992144816544995144C1654399114495
:1059200001664299494441664199294481664099FA
:105930005944C16648B0BDE8F08F00003C5E0008E5
:105940002DE9F04100251646884604462F4617E00B
:10595000216C18F805006054206C401C206440281D
:105960000DD121460846FFF755FFD4E912014FF447
:105970000072801841F100012764C4E912016D1C16
:10598000B542E5D3BDE8F08181760A0AC2760A0CF9
:105990000275090E41757047014600200B2243082D
:1059A00003EBC01011F8013B521E1844C0B2F6D1EF
:1059B000704770B5044600F050F806004BD104F56E
:1059C0008055287803283FD1687901283CD16A891D
:1059D00000212046FFF75DF9552084F8FE01AA203A
:1059E00084F8FF015220207060706120A070412176
:1059F000E170722284F8E42184F8E52184F8E6114C
:105A000084F8E701286984F8E801010A84F8E911BB
:105A1000010C84F8EA11000E84F8EB01E86884F8C0
:105A2000EC01010A84F8ED11010C84F8EE11000E6E
:105A300084F8EF01EA690123521CEA626878214682
:105A4000FEF782F800206871002268781146FEF7A0
:105A500053F800B10126304670BD2DE9F04100F544
:105A60008054804620790027E8B1E56A60780123F8
:105A70002A464146FEF768F808B1012713E00020E6
:105A80002071206AA169281A88420CD2E67808E0C1
:105A9000A0690123054460782A464146FEF754F880
:105AA000761E022EF4D23846BDE8F08110B54FF4D0
:105AB00080610348FAF77BFF02490020488010BD4F
:105AC000542100200400002010B580B100F5805062
:105AD000016861B101F580510A7842B1CA888088B5
